{
  "_format": "hh-sol-artifact-1",
  "contractName": "Groth16Verifier",
  "sourceName": "contracts/Groth16Verifier.sol",
  "abi": [
    {
      "inputs": [
        {
          "internalType": "uint256[2]",
          "name": "_pA",
          "type": "uint256[2]"
        },
        {
          "internalType": "uint256[2][2]",
          "name": "_pB",
          "type": "uint256[2][2]"
        },
        {
          "internalType": "uint256[2]",
          "name": "_pC",
          "type": "uint256[2]"
        },
        {
          "internalType": "uint256[5]",
          "name": "_pubSignals",
          "type": "uint256[5]"
        }
      ],
      "name": "verifyProof",
      "outputs": [
        {
          "internalType": "bool",
          "name": "",
          "type": "bool"
        }
      ],
      "stateMutability": "view",
      "type": "function"
    }
  ],
  "bytecode": "0x608060405234801561001057600080fd5b506106d2806100206000396000f3fe608060405234801561001057600080fd5b506004361061002b5760003560e01c806334baeab914610030575b600080fd5b61004361003e366004610636565b610057565b604051901515815260200160405180910390f35b60006105ba565b7f30644e72e131a029b85045b68181585d2833e84879b9709143e1f593f0000001811061008f576000805260206000f35b50565b600060405183815284602082015285604082015260408160608360076107d05a03fa9150816100c5576000805260206000f35b825160408201526020830151606082015260408360808360066107d05a03fa915050806100f6576000805260206000f35b5050505050565b7f093a42807061fe053654537a9e12f555645acc2e7a2ac23cfd03a778f5099f6385527f1a60df3068f0193f9220e61462c705e2e961288770dc296102dd8833da34fad460208601526000608086018661019a87357f1c01e3442fede4fdde3664acbb92eaa47fd941872b4b29759ce896d4c6d436967f16d73d45041496acabac824e9731d6ca8319c59509aedc5a91850a961ddf1d6384610092565b6101ea60208801357f20d7199fb7e8598a324c2cc1574357f84139a4d63c1ebc2cfedc1ea41b757ddc7f025a177e09cb8925b1d7fd4bda2cc153eb139d2b592965a7800ce55b57e2445c84610092565b61023a60408801357f0cfbb1060a3b738ad5eadc8dd65a7daa638dbe898318925bfc32e22a2256e6577f243c9f327e72a427ab8ee23ff9456da8ff5f9f31338ede160f9321fed993091384610092565b61028a60608801357f16dde1f4a5e31dd981f82556299e205c2ee3cf35414b8f6ae184fc6dcd0529c37f06269f65f2dc097d85d3318261790c4649fb248216c7cb529af10d34f58532e284610092565b6102da60808801357f0bd2f374cf9bb4fd47a4f8beda874cf36d0f1d833c23b688d7fdbe81387515627f2201866725fad31d9c22cfc7325f7e300633a32ef9481235b1603e237de6233a84610092565b50823581527f30644e72e131a029b85045b68181585d97816a916871ca8d3c208c16d87cfd4760208401357f30644e72e131a029b85045b68181585d97816a916871ca8d3c208c16d87cfd4703066020820152833560408201526020840135606082015260408401356080820152606084013560a08201527f257a5b890d3d742c4e58dbe9d44b1f1b21b1cbbd9366fff6660e0f24ebdb242d60c08201527f1fb8cc8e6249dffd13e407cfa6201311efb9456f992bbb41c25897f7c39d843c60e08201527f2c11febada261030763d017793667269102db769af41ca47594b22cfc508fd3b6101008201527f2e616748172700fc94b87ba365499e5a236bed075a2474350dc73d817c5f917a6101208201527f1ed685a005130bf5ab489f15411669107d9830132ac1cd82fdda146f9384bf6a6101408201527f0972a0d90c94d9148699652bd053984e3a3a4f8bc2b6371c0ea8209ce944c1ad610160820152600087015161018082015260206000018701516101a08201527f198e9393920d483a7260bfb731fb5d25f1aa493335a9e71297e485b7aef312c26101c08201527f1800deef121f1e76426a00665e5c4479674322d4f75edadd46debd5cd992f6ed6101e08201527f090689d0585ff075ec9e99ad690c3395bc4b313370b38ef355acdadcd122975b6102008201527f12c85ea5db8c6deb4aab71808dcb408fe3d1e7690c43d37b4ce6cc0166fa7daa610220820152843561024082015260208501356102608201527f0fe0730b8e84d446cd0c412695a32f823990ff84348d5e27213e850c8d3d13c56102808201527f1f83578bbb642d48242d88a5babf2ae16918a4d2391f71e65817b773d937da9d6102a08201527f114af7bdfd3086f4162f5d40b921866c2c089a2d74c65dc8a55d4371fca92dbb6102c08201527f1ccb63f28736d0dee42fe7b5634a2d8d80b13aaf30efc1151bf254a422463cc46102e08201526020816103008360086107d05a03fa9051169695505050505050565b60405161038081016040526105d2600084013561005e565b6105df602084013561005e565b6105ec604084013561005e565b6105f9606084013561005e565b610606608084013561005e565b610613818486888a6100fd565b90508060005260206000f35b806040810183101561063057600080fd5b92915050565b6000806000806101a080868803121561064e57600080fd5b610658878761061f565b945060c086018781111561066b57600080fd5b60408701945061067b888261061f565b93505086818701111561068d57600080fd5b5092959194509261010001915056fea264697066735822122048501f58a41b6ae1e88958afaeda1a753303760e5eca96f1d0d848a4b17c8cf264736f6c63430008130033",
  "linkReferences": {},
  "deployedLinkReferences": {}
}