{"contracts/LineageVerifier.sol":{"LineageVerifier":{"abi":[{"inputs":[{"internalType":"address","name":"_groth16Verifier","type":"address"}],"stateMutability":"nonpayable","type":"constructor"},{"inputs":[],"name":"GenesisAlreadySet","type":"error"},{"inputs":[],"name":"GenesisNotSet","type":"error"},{"inputs":[],"name":"InvalidProof","type":"error"},{"inputs":[],"name":"LineageMismatch","type":"error"},{"inputs":[],"name":"NotAdmin","type":"error"},{"inputs":[],"name":"PreviousStateNotVerified","type":"error"},{"inputs":[],"name":"ZeroStateHash","type":"error"},{"anonymous":false,"inputs":[{"indexed":true,"internalType":"bytes32","name":"stateHash","type":"bytes32"},{"indexed":false,"internalType":"bytes32","name":"lineageCommitment","type":"bytes32"}],"name":"GenesisSet","type":"event"},{"anonymous":false,"inputs":[{"indexed":true,"internalType":"bytes32","name":"prevStateHash","type":"bytes32"},{"indexed":true,"internalType":"bytes32","name":"newStateHash","type":"bytes32"},{"indexed":false,"internalType":"bytes32","name":"newLineageCommitment","type":"bytes32"},{"indexed":false,"internalType":"uint256","name":"depth","type":"uint256"}],"name":"LineageVerified","type":"event"},{"inputs":[],"name":"admin","outputs":[{"internalType":"address","name":"","type":"address"}],"stateMutability":"view","type":"function"},{"inputs":[],"name":"genesisInitialized","outputs":[{"internalType":"bool","name":"","type":"bool"}],"stateMutability":"view","type":"function"},{"inputs":[],"name":"genesisLineageCommitment","outputs":[{"internalType":"bytes32","name":"","type":"bytes32"}],"stateMutability":"view","type":"function"},{"inputs":[],"name":"genesisStateHash","outputs":[{"internalType":"bytes32","name":"","type":"bytes32"}],"stateMutability":"view","type":"function"},{"inputs":[{"internalType":"bytes32","name":"stateHash","type":"bytes32"}],"name":"getDepth","outputs":[{"internalType":"uint256","name":"","type":"uint256"}],"stateMutability":"view","type":"function"},{"inputs":[{"internalType":"bytes32","name":"stateHash","type":"bytes32"}],"name":"getLineage","outputs":[{"internalType":"bytes32","name":"","type":"bytes32"}],"stateMutability":"view","type":"function"},{"inputs":[{"internalType":"bytes32","name":"stateHash","type":"bytes32"}],"name":"getStateInfo","outputs":[{"internalType":"bytes32","name":"lineageCommitment","type":"bytes32"},{"internalType":"uint256","name":"depth","type":"uint256"},{"internalType":"bool","name":"verified","type":"bool"}],"stateMutability":"view","type":"function"},{"inputs":[],"name":"groth16Verifier","outputs":[{"internalType":"contract IGroth16Verifier","name":"","type":"address"}],"stateMutability":"view","type":"function"},{"inputs":[{"internalType":"bytes32","name":"stateHash","type":"bytes32"}],"name":"hasVerifiedLineage","outputs":[{"internalType":"bool","name":"","type":"bool"}],"stateMutability":"view","type":"function"},{"inputs":[{"internalType":"bytes32","name":"_genesisStateHash","type":"bytes32"},{"internalType":"bytes32","name":"_genesisLineageCommitment","type":"bytes32"}],"name":"setGenesis","outputs":[],"stateMutability":"nonpayable","type":"function"},{"inputs":[{"internalType":"bytes32","name":"","type":"bytes32"}],"name":"stateDepth","outputs":[{"internalType":"uint256","name":"","type":"uint256"}],"stateMutability":"view","type":"function"},{"inputs":[{"internalType":"bytes32","name":"","type":"bytes32"}],"name":"stateLineage","outputs":[{"internalType":"bytes32","name":"","type":"bytes32"}],"stateMutability":"view","type":"function"},{"inputs":[],"name":"totalTransitions","outputs":[{"internalType":"uint256","name":"","type":"uint256"}],"stateMutability":"view","type":"function"},{"inputs":[{"internalType":"address","name":"newAdmin","type":"address"}],"name":"transferAdmin","outputs":[],"stateMutability":"nonpayable","type":"function"},{"inputs":[{"internalType":"bytes32","name":"","type":"bytes32"}],"name":"verifiedStates","outputs":[{"internalType":"bool","name":"","type":"bool"}],"stateMutability":"view","type":"function"},{"inputs":[{"internalType":"uint256[2]","name":"pA","type":"uint256[2]"},{"internalType":"uint256[2][2]","name":"pB","type":"uint256[2][2]"},{"internalType":"uint256[2]","name":"pC","type":"uint256[2]"},{"internalType":"uint256[2]","name":"publicSignals","type":"uint256[2]"}],"name":"verifyLineage","outputs":[{"internalType":"bool","name":"success","type":"bool"}],"stateMutability":"nonpayable","type":"function"},{"inputs":[{"internalType":"uint256[2]","name":"pA","type":"uint256[2]"},{"internalType":"uint256[2][2]","name":"pB","type":"uint256[2][2]"},{"internalType":"uint256[2]","name":"pC","type":"uint256[2]"},{"internalType":"bytes32","name":"prevStateHash","type":"bytes32"},{"internalType":"bytes32","name":"newStateHash","type":"bytes32"},{"internalType":"bytes32","name":"prevLineageCommitment","type":"bytes32"},{"internalType":"uint256[2]","name":"publicSignals","type":"uint256[2]"}],"name":"verifyLineageWithStates","outputs":[{"internalType":"bool","name":"success","type":"bool"}],"stateMutability":"nonpayable","type":"function"}],"evm":{"bytecode":{"linkReferences":{},"object":"60a060405234801561001057600080fd5b50604051610a9d380380610a9d83398101604081905261002f91610052565b6001600160a01b0316608052600080546001600160a01b03191633179055610082565b60006020828403121561006457600080fd5b81516001600160a01b038116811461007b57600080fd5b9392505050565b6080516109f26100ab600039600081816101480152818161040e015261058a01526109f26000f3fe608060405234801561001057600080fd5b506004361061010b5760003560e01c806375829def116100a2578063b214b72d11610071578063b214b72d14610286578063c5148c111461028f578063d185903f146102a2578063d541bb10146102f9578063f851a4401461030c57600080fd5b806375829def146102275780637b63bb341461023c5780637d66a0bc1461024f5780637ee7d4521461027257600080fd5b80633d8e6498116100de5780633d8e6498146101d557806349f2d22c146101de5780634d2a1c05146101fe578063649c8af21461021e57600080fd5b806303e55b3d1461011057806319c813be14610143578063200a99a11461018257806322ede8ee146101b5575b600080fd5b61013061011e3660046107c1565b60046020526000908152604090205481565b6040519081526020015b60405180910390f35b61016a7f000000000000000000000000000000000000000000000000000000000000000081565b6040516001600160a01b03909116815260200161013a565b6101a56101903660046107c1565b60009081526005602052604090205460ff1690565b604051901515815260200161013a565b6101306101c33660046107c1565b60036020526000908152604090205481565b61013060015481565b6101306101ec3660046107c1565b60009081526003602052604090205490565b61013061020c3660046107c1565b60009081526004602052604090205490565b61013060025481565b61023a6102353660046107da565b61031f565b005b6101a561024a366004610832565b61036c565b6101a561025d3660046107c1565b60056020526000908152604090205460ff1681565b6000546101a590600160a01b900460ff1681565b61013060065481565b6101a561029d3660046108ac565b610545565b6102dc6102b03660046107c1565b6000818152600360209081526040808320546004835281842054600590935292205460ff169193909250565b60408051938452602084019290925215159082015260600161013a565b61023a610307366004610906565b6106c2565b60005461016a906001600160a01b031681565b6000546001600160a01b0316331461034a57604051637bfa4b9f60e01b815260040160405180910390fd5b600080546001600160a01b0319166001600160a01b0392909216919091179055565b60008054600160a01b900460ff166103975760405163cf704f1d60e01b815260040160405180910390fd5b60008581526005602052604090205460ff166103c6576040516303e2a68160e41b815260040160405180910390fd5b60008581526003602052604090205483146103f4576040516311c6e13160e11b815260040160405180910390fd5b604051637ae4eb4f60e11b81526000906001600160a01b037f0000000000000000000000000000000000000000000000000000000000000000169063f5c9d69e90610449908c908c908c908990600401610928565b602060405180830381865afa158015610466573d6000803e3d6000fd5b505050506040513d601f19601f8201168201806040525081019061048a9190610973565b9050806104aa576040516309bde33960e01b815260040160405180910390fd5b60008581526003602090815260408083208635908190556004835281842083880135908190556005909352908320805460ff191660011790556006805491936104f283610995565b9091555050604080518381526020810183905288918a917fa003d566c12e902c3e6a6bfa6c597bbfbfbd9c26b0c4548aed17e8a21825e5a7910160405180910390a35060019a9950505050505050505050565b60008054600160a01b900460ff166105705760405163cf704f1d60e01b815260040160405180910390fd5b604051637ae4eb4f60e11b81526000906001600160a01b037f0000000000000000000000000000000000000000000000000000000000000000169063f5c9d69e906105c5908990899089908990600401610928565b602060405180830381865afa1580156105e2573d6000803e3d6000fd5b505050506040513d601f19601f820116820180604052508101906106069190610973565b905080610626576040516309bde33960e01b815260040160405180910390fd5b8235600081815260036020908152604080832084905560048252808320828801359081905560059092528220805460ff191660011790556006805491928492919061067083610995565b9091555050604080518481526020810184905282916000917fa003d566c12e902c3e6a6bfa6c597bbfbfbd9c26b0c4548aed17e8a21825e5a7910160405180910390a350600198975050505050505050565b6000546001600160a01b031633146106ed57604051637bfa4b9f60e01b815260040160405180910390fd5b600054600160a01b900460ff1615610718576040516357cea9bd60e01b815260040160405180910390fd5b81610736576040516303e21b5f60e01b815260040160405180910390fd5b600182815560028290556000838152600360209081526040808320859055600482528083208390556005909152808220805460ff1916909317909255805460ff60a01b1916600160a01b1790555182907fd8cba4dee452ad537041706a266824e2533c3bb52e5761d53aa78fe5777566f4906107b59084815260200190565b60405180910390a25050565b6000602082840312156107d357600080fd5b5035919050565b6000602082840312156107ec57600080fd5b81356001600160a01b038116811461080357600080fd5b9392505050565b806040810183101561081b57600080fd5b92915050565b806080810183101561081b57600080fd5b60008060008060008060006101a0888a03121561084e57600080fd5b610858898961080a565b96506108678960408a01610821565b95506108768960c08a0161080a565b945061010088013593506101208801359250610140880135915061089e896101608a0161080a565b905092959891949750929550565b60008060008061014085870312156108c357600080fd5b6108cd868661080a565b93506108dc8660408701610821565b92506108eb8660c0870161080a565b91506108fb86610100870161080a565b905092959194509250565b6000806040838503121561091957600080fd5b50508035926020909101359150565b61014081016040808784378083018660005b60028110156109575783828437918301919083019060010161093a565b505050808560c085013780846101008501375095945050505050565b60006020828403121561098557600080fd5b8151801515811461080357600080fd5b6000600182016109b557634e487b7160e01b600052601160045260246000fd5b506001019056fea2646970667358221220d94c2667a5c1f3a3c796a16710ff8a28d3ab5a2065723b45e2f9aa5d9973bd6964736f6c63430008130033","opcodes":"PUSH1 0xA0 PUSH1 0x40 MSTORE CALLVALUE DUP1 ISZERO PUSH2 0x10 JUMPI PUSH1 0x0 DUP1 REVERT JUMPDEST POP PUSH1 0x40 MLOAD PUSH2 0xA9D CODESIZE SUB DUP1 PUSH2 0xA9D DUP4 CODECOPY DUP2 ADD PUSH1 0x40 DUP2 SWAP1 MSTORE PUSH2 0x2F SWAP2 PUSH2 0x52 JUMP JUMPDEST PUSH1 0x1 PUSH1 0x1 PUSH1 0xA0 SHL SUB AND PUSH1 0x80 MSTORE PUSH1 0x0 DUP1 SLOAD PUSH1 0x1 PUSH1 0x1 PUSH1 0xA0 SHL SUB NOT AND CALLER OR SWAP1 SSTORE PUSH2 0x82 JUMP JUMPDEST PUSH1 0x0 PUSH1 0x20 DUP3 DUP5 SUB SLT ISZERO PUSH2 0x64 JUMPI PUSH1 0x0 DUP1 REVERT JUMPDEST DUP2 MLOAD PUSH1 0x1 PUSH1 0x1 PUSH1 0xA0 SHL SUB DUP2 AND DUP2 EQ PUSH2 0x7B JUMPI PUSH1 0x0 DUP1 REVERT JUMPDEST SWAP4 SWAP3 POP POP POP JUMP JUMPDEST PUSH1 0x80 MLOAD PUSH2 0x9F2 PUSH2 0xAB PUSH1 0x0 CODECOPY PUSH1 0x0 DUP2 DUP2 PUSH2 0x148 ADD MSTORE DUP2 DUP2 PUSH2 0x40E ADD MSTORE PUSH2 0x58A ADD MSTORE PUSH2 0x9F2 PUSH1 0x0 RETURN INVALID PUSH1 0x80 PUSH1 0x40 MSTORE CALLVALUE DUP1 ISZERO PUSH2 0x10 JUMPI PUSH1 0x0 DUP1 REVERT JUMPDEST POP PUSH1 0x4 CALLDATASIZE LT PUSH2 0x10B JUMPI PUSH1 0x0 CALLDATALOAD PUSH1 0xE0 SHR DUP1 PUSH4 0x75829DEF GT PUSH2 0xA2 JUMPI DUP1 PUSH4 0xB214B72D GT PUSH2 0x71 JUMPI DUP1 PUSH4 0xB214B72D EQ PUSH2 0x286 JUMPI DUP1 PUSH4 0xC5148C11 EQ PUSH2 0x28F JUMPI DUP1 PUSH4 0xD185903F EQ PUSH2 0x2A2 JUMPI DUP1 PUSH4 0xD541BB10 EQ PUSH2 0x2F9 JUMPI DUP1 PUSH4 0xF851A440 EQ PUSH2 0x30C JUMPI PUSH1 0x0 DUP1 REVERT JUMPDEST DUP1 PUSH4 0x75829DEF EQ PUSH2 0x227 JUMPI DUP1 PUSH4 0x7B63BB34 EQ PUSH2 0x23C JUMPI DUP1 PUSH4 0x7D66A0BC EQ PUSH2 0x24F JUMPI DUP1 PUSH4 0x7EE7D452 EQ PUSH2 0x272 JUMPI PUSH1 0x0 DUP1 REVERT JUMPDEST DUP1 PUSH4 0x3D8E6498 GT PUSH2 0xDE JUMPI DUP1 PUSH4 0x3D8E6498 EQ PUSH2 0x1D5 JUMPI DUP1 PUSH4 0x49F2D22C EQ PUSH2 0x1DE JUMPI DUP1 PUSH4 0x4D2A1C05 EQ PUSH2 0x1FE JUMPI DUP1 PUSH4 0x649C8AF2 EQ PUSH2 0x21E JUMPI PUSH1 0x0 DUP1 REVERT JUMPDEST DUP1 PUSH4 0x3E55B3D EQ PUSH2 0x110 JUMPI DUP1 PUSH4 0x19C813BE EQ PUSH2 0x143 JUMPI DUP1 PUSH4 0x200A99A1 EQ PUSH2 0x182 JUMPI DUP1 PUSH4 0x22EDE8EE EQ PUSH2 0x1B5 JUMPI JUMPDEST PUSH1 0x0 DUP1 REVERT JUMPDEST PUSH2 0x130 PUSH2 0x11E CALLDATASIZE PUSH1 0x4 PUSH2 0x7C1 JUMP JUMPDEST PUSH1 0x4 PUSH1 0x20 MSTORE PUSH1 0x0 SWAP1 DUP2 MSTORE PUSH1 0x40 SWAP1 KECCAK256 SLOAD DUP2 JUMP JUMPDEST PUSH1 0x40 MLOAD SWAP1 DUP2 MSTORE PUSH1 0x20 ADD JUMPDEST PUSH1 0x40 MLOAD DUP1 SWAP2 SUB SWAP1 RETURN JUMPDEST PUSH2 0x16A PUSH32 0x0 DUP2 JUMP JUMPDEST PUSH1 0x40 MLOAD PUSH1 0x1 PUSH1 0x1 PUSH1 0xA0 SHL SUB SWAP1 SWAP2 AND DUP2 MSTORE PUSH1 0x20 ADD PUSH2 0x13A JUMP JUMPDEST PUSH2 0x1A5 PUSH2 0x190 CALLDATASIZE PUSH1 0x4 PUSH2 0x7C1 JUMP JUMPDEST PUSH1 0x0 SWAP1 DUP2 MSTORE PUSH1 0x5 PUSH1 0x20 MSTORE PUSH1 0x40 SWAP1 KECCAK256 SLOAD PUSH1 0xFF AND SWAP1 JUMP JUMPDEST PUSH1 0x40 MLOAD SWAP1 ISZERO ISZERO DUP2 MSTORE PUSH1 0x20 ADD PUSH2 0x13A JUMP JUMPDEST PUSH2 0x130 PUSH2 0x1C3 CALLDATASIZE PUSH1 0x4 PUSH2 0x7C1 JUMP JUMPDEST PUSH1 0x3 PUSH1 0x20 MSTORE PUSH1 0x0 SWAP1 DUP2 MSTORE PUSH1 0x40 SWAP1 KECCAK256 SLOAD DUP2 JUMP JUMPDEST PUSH2 0x130 PUSH1 0x1 SLOAD DUP2 JUMP JUMPDEST PUSH2 0x130 PUSH2 0x1EC CALLDATASIZE PUSH1 0x4 PUSH2 0x7C1 JUMP JUMPDEST PUSH1 0x0 SWAP1 DUP2 MSTORE PUSH1 0x3 PUSH1 0x20 MSTORE PUSH1 0x40 SWAP1 KECCAK256 SLOAD SWAP1 JUMP JUMPDEST PUSH2 0x130 PUSH2 0x20C CALLDATASIZE PUSH1 0x4 PUSH2 0x7C1 JUMP JUMPDEST PUSH1 0x0 SWAP1 DUP2 MSTORE PUSH1 0x4 PUSH1 0x20 MSTORE PUSH1 0x40 SWAP1 KECCAK256 SLOAD SWAP1 JUMP JUMPDEST PUSH2 0x130 PUSH1 0x2 SLOAD DUP2 JUMP JUMPDEST PUSH2 0x23A PUSH2 0x235 CALLDATASIZE PUSH1 0x4 PUSH2 0x7DA JUMP JUMPDEST PUSH2 0x31F JUMP JUMPDEST STOP JUMPDEST PUSH2 0x1A5 PUSH2 0x24A CALLDATASIZE PUSH1 0x4 PUSH2 0x832 JUMP JUMPDEST PUSH2 0x36C JUMP JUMPDEST PUSH2 0x1A5 PUSH2 0x25D CALLDATASIZE PUSH1 0x4 PUSH2 0x7C1 JUMP JUMPDEST PUSH1 0x5 PUSH1 0x20 MSTORE PUSH1 0x0 SWAP1 DUP2 MSTORE PUSH1 0x40 SWAP1 KECCAK256 SLOAD PUSH1 0xFF AND DUP2 JUMP JUMPDEST PUSH1 0x0 SLOAD PUSH2 0x1A5 SWAP1 PUSH1 0x1 PUSH1 0xA0 SHL SWAP1 DIV PUSH1 0xFF AND DUP2 JUMP JUMPDEST PUSH2 0x130 PUSH1 0x6 SLOAD DUP2 JUMP JUMPDEST PUSH2 0x1A5 PUSH2 0x29D CALLDATASIZE PUSH1 0x4 PUSH2 0x8AC JUMP JUMPDEST PUSH2 0x545 JUMP JUMPDEST PUSH2 0x2DC PUSH2 0x2B0 CALLDATASIZE PUSH1 0x4 PUSH2 0x7C1 JUMP JUMPDEST PUSH1 0x0 DUP2 DUP2 MSTORE PUSH1 0x3 PUSH1 0x20 SWAP1 DUP2 MSTORE PUSH1 0x40 DUP1 DUP4 KECCAK256 SLOAD PUSH1 0x4 DUP4 MSTORE DUP2 DUP5 KECCAK256 SLOAD PUSH1 0x5 SWAP1 SWAP4 MSTORE SWAP3 KECCAK256 SLOAD PUSH1 0xFF AND SWAP2 SWAP4 SWAP1 SWAP3 POP JUMP JUMPDEST PUSH1 0x40 DUP1 MLOAD SWAP4 DUP5 MSTORE PUSH1 0x20 DUP5 ADD SWAP3 SWAP1 SWAP3 MSTORE ISZERO ISZERO SWAP1 DUP3 ADD MSTORE PUSH1 0x60 ADD PUSH2 0x13A JUMP JUMPDEST PUSH2 0x23A PUSH2 0x307 CALLDATASIZE PUSH1 0x4 PUSH2 0x906 JUMP JUMPDEST PUSH2 0x6C2 JUMP JUMPDEST PUSH1 0x0 SLOAD PUSH2 0x16A SWAP1 PUSH1 0x1 PUSH1 0x1 PUSH1 0xA0 SHL SUB AND DUP2 JUMP JUMPDEST PUSH1 0x0 SLOAD PUSH1 0x1 PUSH1 0x1 PUSH1 0xA0 SHL SUB AND CALLER EQ PUSH2 0x34A JUMPI PUSH1 0x40 MLOAD PUSH4 0x7BFA4B9F PUSH1 0xE0 SHL DUP2 MSTORE PUSH1 0x4 ADD PUSH1 0x40 MLOAD DUP1 SWAP2 SUB SWAP1 REVERT JUMPDEST PUSH1 0x0 DUP1 SLOAD PUSH1 0x1 PUSH1 0x1 PUSH1 0xA0 SHL SUB NOT AND PUSH1 0x1 PUSH1 0x1 PUSH1 0xA0 SHL SUB SWAP3 SWAP1 SWAP3 AND SWAP2 SWAP1 SWAP2 OR SWAP1 SSTORE JUMP JUMPDEST PUSH1 0x0 DUP1 SLOAD PUSH1 0x1 PUSH1 0xA0 SHL SWAP1 DIV PUSH1 0xFF AND PUSH2 0x397 JUMPI PUSH1 0x40 MLOAD PUSH4 0xCF704F1D PUSH1 0xE0 SHL DUP2 MSTORE PUSH1 0x4 ADD PUSH1 0x40 MLOAD DUP1 SWAP2 SUB SWAP1 REVERT JUMPDEST PUSH1 0x0 DUP6 DUP2 MSTORE PUSH1 0x5 PUSH1 0x20 MSTORE PUSH1 0x40 SWAP1 KECCAK256 SLOAD PUSH1 0xFF AND PUSH2 0x3C6 JUMPI PUSH1 0x40 MLOAD PUSH4 0x3E2A681 PUSH1 0xE4 SHL DUP2 MSTORE PUSH1 0x4 ADD PUSH1 0x40 MLOAD DUP1 SWAP2 SUB SWAP1 REVERT JUMPDEST PUSH1 0x0 DUP6 DUP2 MSTORE PUSH1 0x3 PUSH1 0x20 MSTORE PUSH1 0x40 SWAP1 KECCAK256 SLOAD DUP4 EQ PUSH2 0x3F4 JUMPI PUSH1 0x40 MLOAD PUSH4 0x11C6E131 PUSH1 0xE1 SHL DUP2 MSTORE PUSH1 0x4 ADD PUSH1 0x40 MLOAD DUP1 SWAP2 SUB SWAP1 REVERT JUMPDEST PUSH1 0x40 MLOAD PUSH4 0x7AE4EB4F PUSH1 0xE1 SHL DUP2 MSTORE PUSH1 0x0 SWAP1 PUSH1 0x1 PUSH1 0x1 PUSH1 0xA0 SHL SUB PUSH32 0x0 AND SWAP1 PUSH4 0xF5C9D69E SWAP1 PUSH2 0x449 SWAP1 DUP13 SWAP1 DUP13 SWAP1 DUP13 SWAP1 DUP10 SWAP1 PUSH1 0x4 ADD PUSH2 0x928 JUMP JUMPDEST PUSH1 0x20 PUSH1 0x40 MLOAD DUP1 DUP4 SUB DUP2 DUP7 GAS STATICCALL ISZERO DUP1 ISZERO PUSH2 0x466 JUMPI RETURNDATASIZE PUSH1 0x0 DUP1 RETURNDATACOPY RETURNDATASIZE PUSH1 0x0 REVERT JUMPDEST POP POP POP POP PUSH1 0x40 MLOAD RETURNDATASIZE PUSH1 0x1F NOT PUSH1 0x1F DUP3 ADD AND DUP3 ADD DUP1 PUSH1 0x40 MSTORE POP DUP2 ADD SWAP1 PUSH2 0x48A SWAP2 SWAP1 PUSH2 0x973 JUMP JUMPDEST SWAP1 POP DUP1 PUSH2 0x4AA JUMPI PUSH1 0x40 MLOAD PUSH4 0x9BDE339 PUSH1 0xE0 SHL DUP2 MSTORE PUSH1 0x4 ADD PUSH1 0x40 MLOAD DUP1 SWAP2 SUB SWAP1 REVERT JUMPDEST PUSH1 0x0 DUP6 DUP2 MSTORE PUSH1 0x3 PUSH1 0x20 SWAP1 DUP2 MSTORE PUSH1 0x40 DUP1 DUP4 KECCAK256 DUP7 CALLDATALOAD SWAP1 DUP2 SWAP1 SSTORE PUSH1 0x4 DUP4 MSTORE DUP2 DUP5 KECCAK256 DUP4 DUP9 ADD CALLDATALOAD SWAP1 DUP2 SWAP1 SSTORE PUSH1 0x5 SWAP1 SWAP4 MSTORE SWAP1 DUP4 KECCAK256 DUP1 SLOAD PUSH1 0xFF NOT AND PUSH1 0x1 OR SWAP1 SSTORE PUSH1 0x6 DUP1 SLOAD SWAP2 SWAP4 PUSH2 0x4F2 DUP4 PUSH2 0x995 JUMP JUMPDEST SWAP1 SWAP2 SSTORE POP POP PUSH1 0x40 DUP1 MLOAD DUP4 DUP2 MSTORE PUSH1 0x20 DUP2 ADD DUP4 SWAP1 MSTORE DUP9 SWAP2 DUP11 SWAP2 PUSH32 0xA003D566C12E902C3E6A6BFA6C597BBFBFBD9C26B0C4548AED17E8A21825E5A7 SWAP2 ADD PUSH1 0x40 MLOAD DUP1 SWAP2 SUB SWAP1 LOG3 POP PUSH1 0x1 SWAP11 SWAP10 POP POP POP POP POP POP POP POP POP POP JUMP JUMPDEST PUSH1 0x0 DUP1 SLOAD PUSH1 0x1 PUSH1 0xA0 SHL SWAP1 DIV PUSH1 0xFF AND PUSH2 0x570 JUMPI PUSH1 0x40 MLOAD PUSH4 0xCF704F1D PUSH1 0xE0 SHL DUP2 MSTORE PUSH1 0x4 ADD PUSH1 0x40 MLOAD DUP1 SWAP2 SUB SWAP1 REVERT JUMPDEST PUSH1 0x40 MLOAD PUSH4 0x7AE4EB4F PUSH1 0xE1 SHL DUP2 MSTORE PUSH1 0x0 SWAP1 PUSH1 0x1 PUSH1 0x1 PUSH1 0xA0 SHL SUB PUSH32 0x0 AND SWAP1 PUSH4 0xF5C9D69E SWAP1 PUSH2 0x5C5 SWAP1 DUP10 SWAP1 DUP10 SWAP1 DUP10 SWAP1 DUP10 SWAP1 PUSH1 0x4 ADD PUSH2 0x928 JUMP JUMPDEST PUSH1 0x20 PUSH1 0x40 MLOAD DUP1 DUP4 SUB DUP2 DUP7 GAS STATICCALL ISZERO DUP1 ISZERO PUSH2 0x5E2 JUMPI RETURNDATASIZE PUSH1 0x0 DUP1 RETURNDATACOPY RETURNDATASIZE PUSH1 0x0 REVERT JUMPDEST POP POP POP POP PUSH1 0x40 MLOAD RETURNDATASIZE PUSH1 0x1F NOT PUSH1 0x1F DUP3 ADD AND DUP3 ADD DUP1 PUSH1 0x40 MSTORE POP DUP2 ADD SWAP1 PUSH2 0x606 SWAP2 SWAP1 PUSH2 0x973 JUMP JUMPDEST SWAP1 POP DUP1 PUSH2 0x626 JUMPI PUSH1 0x40 MLOAD PUSH4 0x9BDE339 PUSH1 0xE0 SHL DUP2 MSTORE PUSH1 0x4 ADD PUSH1 0x40 MLOAD DUP1 SWAP2 SUB SWAP1 REVERT JUMPDEST DUP3 CALLDATALOAD PUSH1 0x0 DUP2 DUP2 MSTORE PUSH1 0x3 PUSH1 0x20 SWAP1 DUP2 MSTORE PUSH1 0x40 DUP1 DUP4 KECCAK256 DUP5 SWAP1 SSTORE PUSH1 0x4 DUP3 MSTORE DUP1 DUP4 KECCAK256 DUP3 DUP9 ADD CALLDATALOAD SWAP1 DUP2 SWAP1 SSTORE PUSH1 0x5 SWAP1 SWAP3 MSTORE DUP3 KECCAK256 DUP1 SLOAD PUSH1 0xFF NOT AND PUSH1 0x1 OR SWAP1 SSTORE PUSH1 0x6 DUP1 SLOAD SWAP2 SWAP3 DUP5 SWAP3 SWAP2 SWAP1 PUSH2 0x670 DUP4 PUSH2 0x995 JUMP JUMPDEST SWAP1 SWAP2 SSTORE POP POP PUSH1 0x40 DUP1 MLOAD DUP5 DUP2 MSTORE PUSH1 0x20 DUP2 ADD DUP5 SWAP1 MSTORE DUP3 SWAP2 PUSH1 0x0 SWAP2 PUSH32 0xA003D566C12E902C3E6A6BFA6C597BBFBFBD9C26B0C4548AED17E8A21825E5A7 SWAP2 ADD PUSH1 0x40 MLOAD DUP1 SWAP2 SUB SWAP1 LOG3 POP PUSH1 0x1 SWAP9 SWAP8 POP POP POP POP POP POP POP POP JUMP JUMPDEST PUSH1 0x0 SLOAD PUSH1 0x1 PUSH1 0x1 PUSH1 0xA0 SHL SUB AND CALLER EQ PUSH2 0x6ED JUMPI PUSH1 0x40 MLOAD PUSH4 0x7BFA4B9F PUSH1 0xE0 SHL DUP2 MSTORE PUSH1 0x4 ADD PUSH1 0x40 MLOAD DUP1 SWAP2 SUB SWAP1 REVERT JUMPDEST PUSH1 0x0 SLOAD PUSH1 0x1 PUSH1 0xA0 SHL SWAP1 DIV PUSH1 0xFF AND ISZERO PUSH2 0x718 JUMPI PUSH1 0x40 MLOAD PUSH4 0x57CEA9BD PUSH1 0xE0 SHL DUP2 MSTORE PUSH1 0x4 ADD PUSH1 0x40 MLOAD DUP1 SWAP2 SUB SWAP1 REVERT JUMPDEST DUP2 PUSH2 0x736 JUMPI PUSH1 0x40 MLOAD PUSH4 0x3E21B5F PUSH1 0xE0 SHL DUP2 MSTORE PUSH1 0x4 ADD PUSH1 0x40 MLOAD DUP1 SWAP2 SUB SWAP1 REVERT JUMPDEST PUSH1 0x1 DUP3 DUP2 SSTORE PUSH1 0x2 DUP3 SWAP1 SSTORE PUSH1 0x0 DUP4 DUP2 MSTORE PUSH1 0x3 PUSH1 0x20 SWAP1 DUP2 MSTORE PUSH1 0x40 DUP1 DUP4 KECCAK256 DUP6 SWAP1 SSTORE PUSH1 0x4 DUP3 MSTORE DUP1 DUP4 KECCAK256 DUP4 SWAP1 SSTORE PUSH1 0x5 SWAP1 SWAP2 MSTORE DUP1 DUP3 KECCAK256 DUP1 SLOAD PUSH1 0xFF NOT AND SWAP1 SWAP4 OR SWAP1 SWAP3 SSTORE DUP1 SLOAD PUSH1 0xFF PUSH1 0xA0 SHL NOT AND PUSH1 0x1 PUSH1 0xA0 SHL OR SWAP1 SSTORE MLOAD DUP3 SWAP1 PUSH32 0xD8CBA4DEE452AD537041706A266824E2533C3BB52E5761D53AA78FE5777566F4 SWAP1 PUSH2 0x7B5 SWAP1 DUP5 DUP2 MSTORE PUSH1 0x20 ADD SWAP1 JUMP JUMPDEST PUSH1 0x40 MLOAD DUP1 SWAP2 SUB SWAP1 LOG2 POP POP JUMP JUMPDEST PUSH1 0x0 PUSH1 0x20 DUP3 DUP5 SUB SLT ISZERO PUSH2 0x7D3 JUMPI PUSH1 0x0 DUP1 REVERT JUMPDEST POP CALLDATALOAD SWAP2 SWAP1 POP JUMP JUMPDEST PUSH1 0x0 PUSH1 0x20 DUP3 DUP5 SUB SLT ISZERO PUSH2 0x7EC JUMPI PUSH1 0x0 DUP1 REVERT JUMPDEST DUP2 CALLDATALOAD PUSH1 0x1 PUSH1 0x1 PUSH1 0xA0 SHL SUB DUP2 AND DUP2 EQ PUSH2 0x803 JUMPI PUSH1 0x0 DUP1 REVERT JUMPDEST SWAP4 SWAP3 POP POP POP JUMP JUMPDEST DUP1 PUSH1 0x40 DUP2 ADD DUP4 LT ISZERO PUSH2 0x81B JUMPI PUSH1 0x0 DUP1 REVERT JUMPDEST SWAP3 SWAP2 POP POP JUMP JUMPDEST DUP1 PUSH1 0x80 DUP2 ADD DUP4 LT ISZERO PUSH2 0x81B JUMPI PUSH1 0x0 DUP1 REVERT JUMPDEST PUSH1 0x0 DUP1 PUSH1 0x0 DUP1 PUSH1 0x0 DUP1 PUSH1 0x0 PUSH2 0x1A0 DUP9 DUP11 SUB SLT ISZERO PUSH2 0x84E JUMPI PUSH1 0x0 DUP1 REVERT JUMPDEST PUSH2 0x858 DUP10 DUP10 PUSH2 0x80A JUMP JUMPDEST SWAP7 POP PUSH2 0x867 DUP10 PUSH1 0x40 DUP11 ADD PUSH2 0x821 JUMP JUMPDEST SWAP6 POP PUSH2 0x876 DUP10 PUSH1 0xC0 DUP11 ADD PUSH2 0x80A JUMP JUMPDEST SWAP5 POP PUSH2 0x100 DUP9 ADD CALLDATALOAD SWAP4 POP PUSH2 0x120 DUP9 ADD CALLDATALOAD SWAP3 POP PUSH2 0x140 DUP9 ADD CALLDATALOAD SWAP2 POP PUSH2 0x89E DUP10 PUSH2 0x160 DUP11 ADD PUSH2 0x80A JUMP JUMPDEST SWAP1 POP SWAP3 SWAP6 SWAP9 SWAP2 SWAP5 SWAP8 POP SWAP3 SWAP6 POP JUMP JUMPDEST PUSH1 0x0 DUP1 PUSH1 0x0 DUP1 PUSH2 0x140 DUP6 DUP8 SUB SLT ISZERO PUSH2 0x8C3 JUMPI PUSH1 0x0 DUP1 REVERT JUMPDEST PUSH2 0x8CD DUP7 DUP7 PUSH2 0x80A JUMP JUMPDEST SWAP4 POP PUSH2 0x8DC DUP7 PUSH1 0x40 DUP8 ADD PUSH2 0x821 JUMP JUMPDEST SWAP3 POP PUSH2 0x8EB DUP7 PUSH1 0xC0 DUP8 ADD PUSH2 0x80A JUMP JUMPDEST SWAP2 POP PUSH2 0x8FB DUP7 PUSH2 0x100 DUP8 ADD PUSH2 0x80A JUMP JUMPDEST SWAP1 POP SWAP3 SWAP6 SWAP2 SWAP5 POP SWAP3 POP JUMP JUMPDEST PUSH1 0x0 DUP1 PUSH1 0x40 DUP4 DUP6 SUB SLT ISZERO PUSH2 0x919 JUMPI PUSH1 0x0 DUP1 REVERT JUMPDEST POP POP DUP1 CALLDATALOAD SWAP3 PUSH1 0x20 SWAP1 SWAP2 ADD CALLDATALOAD SWAP2 POP JUMP JUMPDEST PUSH2 0x140 DUP2 ADD PUSH1 0x40 DUP1 DUP8 DUP5 CALLDATACOPY DUP1 DUP4 ADD DUP7 PUSH1 0x0 JUMPDEST PUSH1 0x2 DUP2 LT ISZERO PUSH2 0x957 JUMPI DUP4 DUP3 DUP5 CALLDATACOPY SWAP2 DUP4 ADD SWAP2 SWAP1 DUP4 ADD SWAP1 PUSH1 0x1 ADD PUSH2 0x93A JUMP JUMPDEST POP POP POP DUP1 DUP6 PUSH1 0xC0 DUP6 ADD CALLDATACOPY DUP1 DUP5 PUSH2 0x100 DUP6 ADD CALLDATACOPY POP SWAP6 SWAP5 POP POP POP POP POP JUMP JUMPDEST PUSH1 0x0 PUSH1 0x20 DUP3 DUP5 SUB SLT ISZERO PUSH2 0x985 JUMPI PUSH1 0x0 DUP1 REVERT JUMPDEST DUP2 MLOAD DUP1 ISZERO ISZERO DUP2 EQ PUSH2 0x803 JUMPI PUSH1 0x0 DUP1 REVERT JUMPDEST PUSH1 0x0 PUSH1 0x1 DUP3 ADD PUSH2 0x9B5 JUMPI PUSH4 0x4E487B71 PUSH1 0xE0 SHL PUSH1 0x0 MSTORE PUSH1 0x11 PUSH1 0x4 MSTORE PUSH1 0x24 PUSH1 0x0 REVERT JUMPDEST POP PUSH1 0x1 ADD SWAP1 JUMP INVALID LOG2 PUSH5 0x6970667358 0x22 SLT KECCAK256 0xD9 0x4C 0x26 PUSH8 0xA5C1F3A3C796A167 LT SELFDESTRUCT DUP11 0x28 0xD3 0xAB GAS KECCAK256 PUSH6 0x723B45E2F9AA 0x5D SWAP10 PUSH20 0xBD6964736F6C6343000813003300000000000000 "},"methodIdentifiers":{"admin()":"f851a440","genesisInitialized()":"7ee7d452","genesisLineageCommitment()":"649c8af2","genesisStateHash()":"3d8e6498","getDepth(bytes32)":"4d2a1c05","getLineage(bytes32)":"49f2d22c","getStateInfo(bytes32)":"d185903f","groth16Verifier()":"19c813be","hasVerifiedLineage(bytes32)":"200a99a1","setGenesis(bytes32,bytes32)":"d541bb10","stateDepth(bytes32)":"03e55b3d","stateLineage(bytes32)":"22ede8ee","totalTransitions()":"b214b72d","transferAdmin(address)":"75829def","verifiedStates(bytes32)":"7d66a0bc","verifyLineage(uint256[2],uint256[2][2],uint256[2],uint256[2])":"c5148c11","verifyLineageWithStates(uint256[2],uint256[2][2],uint256[2],bytes32,bytes32,bytes32,uint256[2])":"7b63bb34"}}}}}