{"contracts/Groth16Verifier.sol":{"Groth16Verifier":{"abi":[{"inputs":[{"internalType":"uint256[2]","name":"_pA","type":"uint256[2]"},{"internalType":"uint256[2][2]","name":"_pB","type":"uint256[2][2]"},{"internalType":"uint256[2]","name":"_pC","type":"uint256[2]"},{"internalType":"uint256[5]","name":"_pubSignals","type":"uint256[5]"}],"name":"verifyProof","outputs":[{"internalType":"bool","name":"","type":"bool"}],"stateMutability":"view","type":"function"}],"evm":{"bytecode":{"linkReferences":{},"object":"608060405234801561001057600080fd5b506106d2806100206000396000f3fe608060405234801561001057600080fd5b506004361061002b5760003560e01c806334baeab914610030575b600080fd5b61004361003e366004610636565b610057565b604051901515815260200160405180910390f35b60006105ba565b7f30644e72e131a029b85045b68181585d2833e84879b9709143e1f593f0000001811061008f576000805260206000f35b50565b600060405183815284602082015285604082015260408160608360076107d05a03fa9150816100c5576000805260206000f35b825160408201526020830151606082015260408360808360066107d05a03fa915050806100f6576000805260206000f35b5050505050565b7f093a42807061fe053654537a9e12f555645acc2e7a2ac23cfd03a778f5099f6385527f1a60df3068f0193f9220e61462c705e2e961288770dc296102dd8833da34fad460208601526000608086018661019a87357f1c01e3442fede4fdde3664acbb92eaa47fd941872b4b29759ce896d4c6d436967f16d73d45041496acabac824e9731d6ca8319c59509aedc5a91850a961ddf1d6384610092565b6101ea60208801357f20d7199fb7e8598a324c2cc1574357f84139a4d63c1ebc2cfedc1ea41b757ddc7f025a177e09cb8925b1d7fd4bda2cc153eb139d2b592965a7800ce55b57e2445c84610092565b61023a60408801357f0cfbb1060a3b738ad5eadc8dd65a7daa638dbe898318925bfc32e22a2256e6577f243c9f327e72a427ab8ee23ff9456da8ff5f9f31338ede160f9321fed993091384610092565b61028a60608801357f16dde1f4a5e31dd981f82556299e205c2ee3cf35414b8f6ae184fc6dcd0529c37f06269f65f2dc097d85d3318261790c4649fb248216c7cb529af10d34f58532e284610092565b6102da60808801357f0bd2f374cf9bb4fd47a4f8beda874cf36d0f1d833c23b688d7fdbe81387515627f2201866725fad31d9c22cfc7325f7e300633a32ef9481235b1603e237de6233a84610092565b50823581527f30644e72e131a029b85045b68181585d97816a916871ca8d3c208c16d87cfd4760208401357f30644e72e131a029b85045b68181585d97816a916871ca8d3c208c16d87cfd4703066020820152833560408201526020840135606082015260408401356080820152606084013560a08201527f257a5b890d3d742c4e58dbe9d44b1f1b21b1cbbd9366fff6660e0f24ebdb242d60c08201527f1fb8cc8e6249dffd13e407cfa6201311efb9456f992bbb41c25897f7c39d843c60e08201527f2c11febada261030763d017793667269102db769af41ca47594b22cfc508fd3b6101008201527f2e616748172700fc94b87ba365499e5a236bed075a2474350dc73d817c5f917a6101208201527f1ed685a005130bf5ab489f15411669107d9830132ac1cd82fdda146f9384bf6a6101408201527f0972a0d90c94d9148699652bd053984e3a3a4f8bc2b6371c0ea8209ce944c1ad610160820152600087015161018082015260206000018701516101a08201527f198e9393920d483a7260bfb731fb5d25f1aa493335a9e71297e485b7aef312c26101c08201527f1800deef121f1e76426a00665e5c4479674322d4f75edadd46debd5cd992f6ed6101e08201527f090689d0585ff075ec9e99ad690c3395bc4b313370b38ef355acdadcd122975b6102008201527f12c85ea5db8c6deb4aab71808dcb408fe3d1e7690c43d37b4ce6cc0166fa7daa610220820152843561024082015260208501356102608201527f0fe0730b8e84d446cd0c412695a32f823990ff84348d5e27213e850c8d3d13c56102808201527f1f83578bbb642d48242d88a5babf2ae16918a4d2391f71e65817b773d937da9d6102a08201527f114af7bdfd3086f4162f5d40b921866c2c089a2d74c65dc8a55d4371fca92dbb6102c08201527f1ccb63f28736d0dee42fe7b5634a2d8d80b13aaf30efc1151bf254a422463cc46102e08201526020816103008360086107d05a03fa9051169695505050505050565b60405161038081016040526105d2600084013561005e565b6105df602084013561005e565b6105ec604084013561005e565b6105f9606084013561005e565b610606608084013561005e565b610613818486888a6100fd565b90508060005260206000f35b806040810183101561063057600080fd5b92915050565b6000806000806101a080868803121561064e57600080fd5b610658878761061f565b945060c086018781111561066b57600080fd5b60408701945061067b888261061f565b93505086818701111561068d57600080fd5b5092959194509261010001915056fea264697066735822122048501f58a41b6ae1e88958afaeda1a753303760e5eca96f1d0d848a4b17c8cf264736f6c63430008130033","opcodes":"PUSH1 0x80 PUSH1 0x40 MSTORE CALLVALUE DUP1 ISZERO PUSH2 0x10 JUMPI PUSH1 0x0 DUP1 REVERT JUMPDEST POP PUSH2 0x6D2 DUP1 PUSH2 0x20 PUSH1 0x0 CODECOPY PUSH1 0x0 RETURN INVALID PUSH1 0x80 PUSH1 0x40 MSTORE CALLVALUE DUP1 ISZERO PUSH2 0x10 JUMPI PUSH1 0x0 DUP1 REVERT JUMPDEST POP PUSH1 0x4 CALLDATASIZE LT PUSH2 0x2B JUMPI PUSH1 0x0 CALLDATALOAD PUSH1 0xE0 SHR DUP1 PUSH4 0x34BAEAB9 EQ PUSH2 0x30 JUMPI JUMPDEST PUSH1 0x0 DUP1 REVERT JUMPDEST PUSH2 0x43 PUSH2 0x3E CALLDATASIZE PUSH1 0x4 PUSH2 0x636 JUMP JUMPDEST PUSH2 0x57 JUMP JUMPDEST PUSH1 0x40 MLOAD SWAP1 ISZERO ISZERO DUP2 MSTORE PUSH1 0x20 ADD PUSH1 0x40 MLOAD DUP1 SWAP2 SUB SWAP1 RETURN JUMPDEST PUSH1 0x0 PUSH2 0x5BA JUMP JUMPDEST PUSH32 0x30644E72E131A029B85045B68181585D2833E84879B9709143E1F593F0000001 DUP2 LT PUSH2 0x8F JUMPI PUSH1 0x0 DUP1 MSTORE PUSH1 0x20 PUSH1 0x0 RETURN JUMPDEST POP JUMP JUMPDEST PUSH1 0x0 PUSH1 0x40 MLOAD DUP4 DUP2 MSTORE DUP5 PUSH1 0x20 DUP3 ADD MSTORE DUP6 PUSH1 0x40 DUP3 ADD MSTORE PUSH1 0x40 DUP2 PUSH1 0x60 DUP4 PUSH1 0x7 PUSH2 0x7D0 GAS SUB STATICCALL SWAP2 POP DUP2 PUSH2 0xC5 JUMPI PUSH1 0x0 DUP1 MSTORE PUSH1 0x20 PUSH1 0x0 RETURN JUMPDEST DUP3 MLOAD PUSH1 0x40 DUP3 ADD MSTORE PUSH1 0x20 DUP4 ADD MLOAD PUSH1 0x60 DUP3 ADD MSTORE PUSH1 0x40 DUP4 PUSH1 0x80 DUP4 PUSH1 0x6 PUSH2 0x7D0 GAS SUB STATICCALL SWAP2 POP POP DUP1 PUSH2 0xF6 JUMPI PUSH1 0x0 DUP1 MSTORE PUSH1 0x20 PUSH1 0x0 RETURN JUMPDEST POP POP POP POP POP JUMP JUMPDEST PUSH32 0x93A42807061FE053654537A9E12F555645ACC2E7A2AC23CFD03A778F5099F63 DUP6 MSTORE PUSH32 0x1A60DF3068F0193F9220E61462C705E2E961288770DC296102DD8833DA34FAD4 PUSH1 0x20 DUP7 ADD MSTORE PUSH1 0x0 PUSH1 0x80 DUP7 ADD DUP7 PUSH2 0x19A DUP8 CALLDATALOAD PUSH32 0x1C01E3442FEDE4FDDE3664ACBB92EAA47FD941872B4B29759CE896D4C6D43696 PUSH32 0x16D73D45041496ACABAC824E9731D6CA8319C59509AEDC5A91850A961DDF1D63 DUP5 PUSH2 0x92 JUMP JUMPDEST PUSH2 0x1EA PUSH1 0x20 DUP9 ADD CALLDATALOAD PUSH32 0x20D7199FB7E8598A324C2CC1574357F84139A4D63C1EBC2CFEDC1EA41B757DDC PUSH32 0x25A177E09CB8925B1D7FD4BDA2CC153EB139D2B592965A7800CE55B57E2445C DUP5 PUSH2 0x92 JUMP JUMPDEST PUSH2 0x23A PUSH1 0x40 DUP9 ADD CALLDATALOAD PUSH32 0xCFBB1060A3B738AD5EADC8DD65A7DAA638DBE898318925BFC32E22A2256E657 PUSH32 0x243C9F327E72A427AB8EE23FF9456DA8FF5F9F31338EDE160F9321FED9930913 DUP5 PUSH2 0x92 JUMP JUMPDEST PUSH2 0x28A PUSH1 0x60 DUP9 ADD CALLDATALOAD PUSH32 0x16DDE1F4A5E31DD981F82556299E205C2EE3CF35414B8F6AE184FC6DCD0529C3 PUSH32 0x6269F65F2DC097D85D3318261790C4649FB248216C7CB529AF10D34F58532E2 DUP5 PUSH2 0x92 JUMP JUMPDEST PUSH2 0x2DA PUSH1 0x80 DUP9 ADD CALLDATALOAD PUSH32 0xBD2F374CF9BB4FD47A4F8BEDA874CF36D0F1D833C23B688D7FDBE8138751562 PUSH32 0x2201866725FAD31D9C22CFC7325F7E300633A32EF9481235B1603E237DE6233A DUP5 PUSH2 0x92 JUMP JUMPDEST POP DUP3 CALLDATALOAD DUP2 MSTORE PUSH32 0x30644E72E131A029B85045B68181585D97816A916871CA8D3C208C16D87CFD47 PUSH1 0x20 DUP5 ADD CALLDATALOAD PUSH32 0x30644E72E131A029B85045B68181585D97816A916871CA8D3C208C16D87CFD47 SUB MOD PUSH1 0x20 DUP3 ADD MSTORE DUP4 CALLDATALOAD PUSH1 0x40 DUP3 ADD MSTORE PUSH1 0x20 DUP5 ADD CALLDATALOAD PUSH1 0x60 DUP3 ADD MSTORE PUSH1 0x40 DUP5 ADD CALLDATALOAD PUSH1 0x80 DUP3 ADD MSTORE PUSH1 0x60 DUP5 ADD CALLDATALOAD PUSH1 0xA0 DUP3 ADD MSTORE PUSH32 0x257A5B890D3D742C4E58DBE9D44B1F1B21B1CBBD9366FFF6660E0F24EBDB242D PUSH1 0xC0 DUP3 ADD MSTORE PUSH32 0x1FB8CC8E6249DFFD13E407CFA6201311EFB9456F992BBB41C25897F7C39D843C PUSH1 0xE0 DUP3 ADD MSTORE PUSH32 0x2C11FEBADA261030763D017793667269102DB769AF41CA47594B22CFC508FD3B PUSH2 0x100 DUP3 ADD MSTORE PUSH32 0x2E616748172700FC94B87BA365499E5A236BED075A2474350DC73D817C5F917A PUSH2 0x120 DUP3 ADD MSTORE PUSH32 0x1ED685A005130BF5AB489F15411669107D9830132AC1CD82FDDA146F9384BF6A PUSH2 0x140 DUP3 ADD MSTORE PUSH32 0x972A0D90C94D9148699652BD053984E3A3A4F8BC2B6371C0EA8209CE944C1AD PUSH2 0x160 DUP3 ADD MSTORE PUSH1 0x0 DUP8 ADD MLOAD PUSH2 0x180 DUP3 ADD MSTORE PUSH1 0x20 PUSH1 0x0 ADD DUP8 ADD MLOAD PUSH2 0x1A0 DUP3 ADD MSTORE PUSH32 0x198E9393920D483A7260BFB731FB5D25F1AA493335A9E71297E485B7AEF312C2 PUSH2 0x1C0 DUP3 ADD MSTORE PUSH32 0x1800DEEF121F1E76426A00665E5C4479674322D4F75EDADD46DEBD5CD992F6ED PUSH2 0x1E0 DUP3 ADD MSTORE PUSH32 0x90689D0585FF075EC9E99AD690C3395BC4B313370B38EF355ACDADCD122975B PUSH2 0x200 DUP3 ADD MSTORE PUSH32 0x12C85EA5DB8C6DEB4AAB71808DCB408FE3D1E7690C43D37B4CE6CC0166FA7DAA PUSH2 0x220 DUP3 ADD MSTORE DUP5 CALLDATALOAD PUSH2 0x240 DUP3 ADD MSTORE PUSH1 0x20 DUP6 ADD CALLDATALOAD PUSH2 0x260 DUP3 ADD MSTORE PUSH32 0xFE0730B8E84D446CD0C412695A32F823990FF84348D5E27213E850C8D3D13C5 PUSH2 0x280 DUP3 ADD MSTORE PUSH32 0x1F83578BBB642D48242D88A5BABF2AE16918A4D2391F71E65817B773D937DA9D PUSH2 0x2A0 DUP3 ADD MSTORE PUSH32 0x114AF7BDFD3086F4162F5D40B921866C2C089A2D74C65DC8A55D4371FCA92DBB PUSH2 0x2C0 DUP3 ADD MSTORE PUSH32 0x1CCB63F28736D0DEE42FE7B5634A2D8D80B13AAF30EFC1151BF254A422463CC4 PUSH2 0x2E0 DUP3 ADD MSTORE PUSH1 0x20 DUP2 PUSH2 0x300 DUP4 PUSH1 0x8 PUSH2 0x7D0 GAS SUB STATICCALL SWAP1 MLOAD AND SWAP7 SWAP6 POP POP POP POP POP POP JUMP JUMPDEST PUSH1 0x40 MLOAD PUSH2 0x380 DUP2 ADD PUSH1 0x40 MSTORE PUSH2 0x5D2 PUSH1 0x0 DUP5 ADD CALLDATALOAD PUSH2 0x5E JUMP JUMPDEST PUSH2 0x5DF PUSH1 0x20 DUP5 ADD CALLDATALOAD PUSH2 0x5E JUMP JUMPDEST PUSH2 0x5EC PUSH1 0x40 DUP5 ADD CALLDATALOAD PUSH2 0x5E JUMP JUMPDEST PUSH2 0x5F9 PUSH1 0x60 DUP5 ADD CALLDATALOAD PUSH2 0x5E JUMP JUMPDEST PUSH2 0x606 PUSH1 0x80 DUP5 ADD CALLDATALOAD PUSH2 0x5E JUMP JUMPDEST PUSH2 0x613 DUP2 DUP5 DUP7 DUP9 DUP11 PUSH2 0xFD JUMP JUMPDEST SWAP1 POP DUP1 PUSH1 0x0 MSTORE PUSH1 0x20 PUSH1 0x0 RETURN JUMPDEST DUP1 PUSH1 0x40 DUP2 ADD DUP4 LT ISZERO PUSH2 0x630 JUMPI PUSH1 0x0 DUP1 REVERT JUMPDEST SWAP3 SWAP2 POP POP JUMP JUMPDEST PUSH1 0x0 DUP1 PUSH1 0x0 DUP1 PUSH2 0x1A0 DUP1 DUP7 DUP9 SUB SLT ISZERO PUSH2 0x64E JUMPI PUSH1 0x0 DUP1 REVERT JUMPDEST PUSH2 0x658 DUP8 DUP8 PUSH2 0x61F JUMP JUMPDEST SWAP5 POP PUSH1 0xC0 DUP7 ADD DUP8 DUP2 GT ISZERO PUSH2 0x66B JUMPI PUSH1 0x0 DUP1 REVERT JUMPDEST PUSH1 0x40 DUP8 ADD SWAP5 POP PUSH2 0x67B DUP9 DUP3 PUSH2 0x61F JUMP JUMPDEST SWAP4 POP POP DUP7 DUP2 DUP8 ADD GT ISZERO PUSH2 0x68D JUMPI PUSH1 0x0 DUP1 REVERT JUMPDEST POP SWAP3 SWAP6 SWAP2 SWAP5 POP SWAP3 PUSH2 0x100 ADD SWAP2 POP JUMP INVALID LOG2 PUSH5 0x6970667358 0x22 SLT KECCAK256 BASEFEE POP 0x1F PC LOG4 SHL PUSH11 0xE1E88958AFAEDA1A753303 PUSH23 0xE5ECA96F1D0D848A4B17C8CF264736F6C634300081300 CALLER "},"methodIdentifiers":{"verifyProof(uint256[2],uint256[2][2],uint256[2],uint256[5])":"34baeab9"}}}}}