{"contracts/MockGroth16Verifier.sol":{"MockGroth16Verifier":{"abi":[{"inputs":[{"internalType":"bool","name":"_result","type":"bool"}],"name":"setVerifyResult","outputs":[],"stateMutability":"nonpayable","type":"function"},{"inputs":[],"name":"shouldVerify","outputs":[{"internalType":"bool","name":"","type":"bool"}],"stateMutability":"view","type":"function"},{"inputs":[{"internalType":"uint256[2]","name":"","type":"uint256[2]"},{"internalType":"uint256[2][2]","name":"","type":"uint256[2][2]"},{"internalType":"uint256[2]","name":"","type":"uint256[2]"},{"internalType":"uint256[2]","name":"","type":"uint256[2]"}],"name":"verifyProof","outputs":[{"internalType":"bool","name":"","type":"bool"}],"stateMutability":"view","type":"function"}],"evm":{"bytecode":{"linkReferences":{},"object":"60806040526000805460ff1916600117905534801561001d57600080fd5b5061017c8061002d6000396000f3fe608060405234801561001057600080fd5b50600436106100415760003560e01c80630a79726a14610046578063c7b6b08014610067578063f5c9d69e1461008a575b600080fd5b6000546100539060ff1681565b604051901515815260200160405180910390f35b6100886100753660046100a6565b6000805460ff1916911515919091179055565b005b6100536100983660046100e6565b60005460ff16949350505050565b6000602082840312156100b857600080fd5b813580151581146100c857600080fd5b9392505050565b80604081018310156100e057600080fd5b92915050565b60008060008061014085870312156100fd57600080fd5b61010786866100cf565b935060c085018681111561011a57600080fd5b60408601935061012a87826100cf565b92505061013b8661010087016100cf565b90509295919450925056fea2646970667358221220e90253e09080f4fce9c5087d7ec7ee25b312dddf644cd1620d7284b0df49e15264736f6c63430008130033","opcodes":"PUSH1 0x80 PUSH1 0x40 MSTORE PUSH1 0x0 DUP1 SLOAD PUSH1 0xFF NOT AND PUSH1 0x1 OR SWAP1 SSTORE CALLVALUE DUP1 ISZERO PUSH2 0x1D JUMPI PUSH1 0x0 DUP1 REVERT JUMPDEST POP PUSH2 0x17C DUP1 PUSH2 0x2D PUSH1 0x0 CODECOPY PUSH1 0x0 RETURN INVALID PUSH1 0x80 PUSH1 0x40 MSTORE CALLVALUE DUP1 ISZERO PUSH2 0x10 JUMPI PUSH1 0x0 DUP1 REVERT JUMPDEST POP PUSH1 0x4 CALLDATASIZE LT PUSH2 0x41 JUMPI PUSH1 0x0 CALLDATALOAD PUSH1 0xE0 SHR DUP1 PUSH4 0xA79726A EQ PUSH2 0x46 JUMPI DUP1 PUSH4 0xC7B6B080 EQ PUSH2 0x67 JUMPI DUP1 PUSH4 0xF5C9D69E EQ PUSH2 0x8A JUMPI JUMPDEST PUSH1 0x0 DUP1 REVERT JUMPDEST PUSH1 0x0 SLOAD PUSH2 0x53 SWAP1 PUSH1 0xFF AND DUP2 JUMP JUMPDEST PUSH1 0x40 MLOAD SWAP1 ISZERO ISZERO DUP2 MSTORE PUSH1 0x20 ADD PUSH1 0x40 MLOAD DUP1 SWAP2 SUB SWAP1 RETURN JUMPDEST PUSH2 0x88 PUSH2 0x75 CALLDATASIZE PUSH1 0x4 PUSH2 0xA6 JUMP JUMPDEST PUSH1 0x0 DUP1 SLOAD PUSH1 0xFF NOT AND SWAP2 ISZERO ISZERO SWAP2 SWAP1 SWAP2 OR SWAP1 SSTORE JUMP JUMPDEST STOP JUMPDEST PUSH2 0x53 PUSH2 0x98 CALLDATASIZE PUSH1 0x4 PUSH2 0xE6 JUMP JUMPDEST PUSH1 0x0 SLOAD PUSH1 0xFF AND SWAP5 SWAP4 POP POP POP POP JUMP JUMPDEST PUSH1 0x0 PUSH1 0x20 DUP3 DUP5 SUB SLT ISZERO PUSH2 0xB8 JUMPI PUSH1 0x0 DUP1 REVERT JUMPDEST DUP2 CALLDATALOAD DUP1 ISZERO ISZERO DUP2 EQ PUSH2 0xC8 JUMPI PUSH1 0x0 DUP1 REVERT JUMPDEST SWAP4 SWAP3 POP POP POP JUMP JUMPDEST DUP1 PUSH1 0x40 DUP2 ADD DUP4 LT ISZERO PUSH2 0xE0 JUMPI PUSH1 0x0 DUP1 REVERT JUMPDEST SWAP3 SWAP2 POP POP JUMP JUMPDEST PUSH1 0x0 DUP1 PUSH1 0x0 DUP1 PUSH2 0x140 DUP6 DUP8 SUB SLT ISZERO PUSH2 0xFD JUMPI PUSH1 0x0 DUP1 REVERT JUMPDEST PUSH2 0x107 DUP7 DUP7 PUSH2 0xCF JUMP JUMPDEST SWAP4 POP PUSH1 0xC0 DUP6 ADD DUP7 DUP2 GT ISZERO PUSH2 0x11A JUMPI PUSH1 0x0 DUP1 REVERT JUMPDEST PUSH1 0x40 DUP7 ADD SWAP4 POP PUSH2 0x12A DUP8 DUP3 PUSH2 0xCF JUMP JUMPDEST SWAP3 POP POP PUSH2 0x13B DUP7 PUSH2 0x100 DUP8 ADD PUSH2 0xCF JUMP JUMPDEST SWAP1 POP SWAP3 SWAP6 SWAP2 SWAP5 POP SWAP3 POP JUMP INVALID LOG2 PUSH5 0x6970667358 0x22 SLT KECCAK256 0xE9 MUL MSTORE8 0xE0 SWAP1 DUP1 DELEGATECALL 0xFC 0xE9 0xC5 ADDMOD PUSH30 0x7EC7EE25B312DDDF644CD1620D7284B0DF49E15264736F6C634300081300 CALLER "},"methodIdentifiers":{"setVerifyResult(bool)":"c7b6b080","shouldVerify()":"0a79726a","verifyProof(uint256[2],uint256[2][2],uint256[2],uint256[2])":"f5c9d69e"}}}}}