{
  "_format": "hh-sol-artifact-1",
  "contractName": "MockGroth16Verifier",
  "sourceName": "contracts/MockGroth16Verifier.sol",
  "abi": [
    {
      "inputs": [
        {
          "internalType": "bool",
          "name": "_result",
          "type": "bool"
        }
      ],
      "name": "setVerifyResult",
      "outputs": [],
      "stateMutability": "nonpayable",
      "type": "function"
    },
    {
      "inputs": [],
      "name": "shouldVerify",
      "outputs": [
        {
          "internalType": "bool",
          "name": "",
          "type": "bool"
        }
      ],
      "stateMutability": "view",
      "type": "function"
    },
    {
      "inputs": [
        {
          "internalType": "uint256[2]",
          "name": "",
          "type": "uint256[2]"
        },
        {
          "internalType": "uint256[2][2]",
          "name": "",
          "type": "uint256[2][2]"
        },
        {
          "internalType": "uint256[2]",
          "name": "",
          "type": "uint256[2]"
        },
        {
          "internalType": "uint256[2]",
          "name": "",
          "type": "uint256[2]"
        }
      ],
      "name": "verifyProof",
      "outputs": [
        {
          "internalType": "bool",
          "name": "",
          "type": "bool"
        }
      ],
      "stateMutability": "view",
      "type": "function"
    }
  ],
  "bytecode": "0x60806040526000805460ff1916600117905534801561001d57600080fd5b5061017c8061002d6000396000f3fe608060405234801561001057600080fd5b50600436106100415760003560e01c80630a79726a14610046578063c7b6b08014610067578063f5c9d69e1461008a575b600080fd5b6000546100539060ff1681565b604051901515815260200160405180910390f35b6100886100753660046100a6565b6000805460ff1916911515919091179055565b005b6100536100983660046100e6565b60005460ff16949350505050565b6000602082840312156100b857600080fd5b813580151581146100c857600080fd5b9392505050565b80604081018310156100e057600080fd5b92915050565b60008060008061014085870312156100fd57600080fd5b61010786866100cf565b935060c085018681111561011a57600080fd5b60408601935061012a87826100cf565b92505061013b8661010087016100cf565b90509295919450925056fea2646970667358221220fd203552f6173e8117d21b0bcaebdbc8fae109805441b3e286cf2f3f4e31498b64736f6c63430008130033",
  "linkReferences": {},
  "deployedLinkReferences": {}
}